{"abi":[{"type":"constructor","inputs":[],"stateMutability":"nonpayable"},{"type":"function","name":"DEFAULT_TIA_PRICE","inputs":[],"outputs":[{"name":"","type":"uint256","internalType":"uint256"}],"stateMutability":"view"},{"type":"function","name":"get_all_currency_pairs","inputs":[],"outputs":[{"name":"","type":"string","internalType":"string"}],"stateMutability":"pure"},{"type":"function","name":"get_price","inputs":[{"name":"pair_id","type":"string","internalType":"string"}],"outputs":[{"name":"","type":"tuple","internalType":"struct IConnectOracle.Price","components":[{"name":"price","type":"uint256","internalType":"uint256"},{"name":"timestamp","type":"uint256","internalType":"uint256"},{"name":"height","type":"uint64","internalType":"uint64"},{"name":"nonce","type":"uint64","internalType":"uint64"},{"name":"decimal","type":"uint64","internalType":"uint64"},{"name":"id","type":"uint64","internalType":"uint64"}]}],"stateMutability":"view"},{"type":"function","name":"get_prices","inputs":[{"name":"pair_ids","type":"string[]","internalType":"string[]"}],"outputs":[{"name":"","type":"tuple[]","internalType":"struct IConnectOracle.Price[]","components":[{"name":"price","type":"uint256","internalType":"uint256"},{"name":"timestamp","type":"uint256","internalType":"uint256"},{"name":"height","type":"uint64","internalType":"uint64"},{"name":"nonce","type":"uint64","internalType":"uint64"},{"name":"decimal","type":"uint64","internalType":"uint64"},{"name":"id","type":"uint64","internalType":"uint64"}]}],"stateMutability":"view"},{"type":"function","name":"setPrice","inputs":[{"name":"pair_id","type":"string","internalType":"string"},{"name":"newPrice","type":"uint256","internalType":"uint256"}],"outputs":[],"stateMutability":"nonpayable"}],"bytecode":{"object":"0x608060405234801561000f575f5ffd5b505f604051602001610020906101d2565b6040516020818303038152906040528051906020012090506040518060c001604052806722b1c8c1227a000081526020014281526020014367ffffffffffffffff168152602001600167ffffffffffffffff168152602001601267ffffffffffffffff168152602001600167ffffffffffffffff168152505f5f8381526020019081526020015f205f820151815f0155602082015181600101556040820151816002015f6101000a81548167ffffffffffffffff021916908367ffffffffffffffff16021790555060608201518160020160086101000a81548167ffffffffffffffff021916908367ffffffffffffffff16021790555060808201518160020160106101000a81548167ffffffffffffffff021916908367ffffffffffffffff16021790555060a08201518160020160186101000a81548167ffffffffffffffff021916908367ffffffffffffffff160217905550905050506101e6565b5f81905092915050565b7f5449412f555344000000000000000000000000000000000000000000000000005f82015250565b5f6101bc60078361017e565b91506101c782610188565b600782019050919050565b5f6101dc826101b0565b9150819050919050565b610e11806101f35f395ff3fe608060405234801561000f575f5ffd5b5060043610610055575f3560e01c80631be4612f1461005957806322e01192146100775780636330ac09146100935780637b1e17dd146100c35780639d835653146100e1575b5f5ffd5b610061610111565b60405161006e9190610666565b60405180910390f35b610091600480360381019061008c91906107f6565b61014e565b005b6100ad60048036038101906100a89190610850565b610334565b6040516100ba9190610941565b60405180910390f35b6100cb610463565b6040516100d89190610969565b60405180910390f35b6100fb60048036038101906100f69190610a64565b61046f565b6040516101089190610bcc565b60405180910390f35b60606040518060400160405280600b81526020017f5b225449412f555344225d000000000000000000000000000000000000000000815250905090565b5f826040516020016101609190610c26565b6040516020818303038152906040528051906020012090505f5f5f8381526020019081526020015f2090506040518060c001604052808481526020014281526020014367ffffffffffffffff16815260200160018360020160089054906101000a900467ffffffffffffffff166101d79190610c69565b67ffffffffffffffff168152602001601267ffffffffffffffff1681526020015f8360020160189054906101000a900467ffffffffffffffff1667ffffffffffffffff161461023e578260020160189054906101000a900467ffffffffffffffff16610241565b60015b67ffffffffffffffff168152505f5f8481526020019081526020015f205f820151815f0155602082015181600101556040820151816002015f6101000a81548167ffffffffffffffff021916908367ffffffffffffffff16021790555060608201518160020160086101000a81548167ffffffffffffffff021916908367ffffffffffffffff16021790555060808201518160020160106101000a81548167ffffffffffffffff021916908367ffffffffffffffff16021790555060a08201518160020160186101000a81548167ffffffffffffffff021916908367ffffffffffffffff16021790555090505050505050565b61033c61059e565b5f8260405160200161034e9190610c26565b6040516020818303038152906040528051906020012090505f5f8281526020019081526020015f206040518060c00160405290815f820154815260200160018201548152602001600282015f9054906101000a900467ffffffffffffffff1667ffffffffffffffff1667ffffffffffffffff1681526020016002820160089054906101000a900467ffffffffffffffff1667ffffffffffffffff1667ffffffffffffffff1681526020016002820160109054906101000a900467ffffffffffffffff1667ffffffffffffffff1667ffffffffffffffff1681526020016002820160189054906101000a900467ffffffffffffffff1667ffffffffffffffff1667ffffffffffffffff1681525050915050919050565b6722b1c8c1227a000081565b60605f825167ffffffffffffffff81111561048d5761048c61069f565b5b6040519080825280602002602001820160405280156104c657816020015b6104b361059e565b8152602001906001900390816104ab5790505b5090505f5f90505b8351811015610594573073ffffffffffffffffffffffffffffffffffffffff16636330ac0985838151811061050657610505610ca4565b5b60200260200101516040518263ffffffff1660e01b815260040161052a9190610666565b60c060405180830381865afa158015610545573d5f5f3e3d5ffd5b505050506040513d601f19601f820116820180604052508101906105699190610db0565b82828151811061057c5761057b610ca4565b5b602002602001018190525080806001019150506104ce565b5080915050919050565b6040518060c001604052805f81526020015f81526020015f67ffffffffffffffff1681526020015f67ffffffffffffffff1681526020015f67ffffffffffffffff1681526020015f67ffffffffffffffff1681525090565b5f81519050919050565b5f82825260208201905092915050565b8281835e5f83830152505050565b5f601f19601f8301169050919050565b5f610638826105f6565b6106428185610600565b9350610652818560208601610610565b61065b8161061e565b840191505092915050565b5f6020820190508181035f83015261067e818461062e565b905092915050565b5f604051905090565b5f5ffd5b5f5ffd5b5f5ffd5b5f5ffd5b7f4e487b71000000000000000000000000000000000000000000000000000000005f52604160045260245ffd5b6106d58261061e565b810181811067ffffffffffffffff821117156106f4576106f361069f565b5b80604052505050565b5f610706610686565b905061071282826106cc565b919050565b5f67ffffffffffffffff8211156107315761073061069f565b5b61073a8261061e565b9050602081019050919050565b828183375f83830152505050565b5f61076761076284610717565b6106fd565b9050828152602081018484840111156107835761078261069b565b5b61078e848285610747565b509392505050565b5f82601f8301126107aa576107a9610697565b5b81356107ba848260208601610755565b91505092915050565b5f819050919050565b6107d5816107c3565b81146107df575f5ffd5b50565b5f813590506107f0816107cc565b92915050565b5f5f6040838503121561080c5761080b61068f565b5b5f83013567ffffffffffffffff81111561082957610828610693565b5b61083585828601610796565b9250506020610846858286016107e2565b9150509250929050565b5f602082840312156108655761086461068f565b5b5f82013567ffffffffffffffff81111561088257610881610693565b5b61088e84828501610796565b91505092915050565b6108a0816107c3565b82525050565b5f67ffffffffffffffff82169050919050565b6108c2816108a6565b82525050565b60c082015f8201516108dc5f850182610897565b5060208201516108ef6020850182610897565b50604082015161090260408501826108b9565b50606082015161091560608501826108b9565b50608082015161092860808501826108b9565b5060a082015161093b60a08501826108b9565b50505050565b5f60c0820190506109545f8301846108c8565b92915050565b610963816107c3565b82525050565b5f60208201905061097c5f83018461095a565b92915050565b5f67ffffffffffffffff82111561099c5761099b61069f565b5b602082029050602081019050919050565b5f5ffd5b5f6109c36109be84610982565b6106fd565b905080838252602082019050602084028301858111156109e6576109e56109ad565b5b835b81811015610a2d57803567ffffffffffffffff811115610a0b57610a0a610697565b5b808601610a188982610796565b855260208501945050506020810190506109e8565b5050509392505050565b5f82601f830112610a4b57610a4a610697565b5b8135610a5b8482602086016109b1565b91505092915050565b5f60208284031215610a7957610a7861068f565b5b5f82013567ffffffffffffffff811115610a9657610a95610693565b5b610aa284828501610a37565b91505092915050565b5f81519050919050565b5f82825260208201905092915050565b5f819050602082019050919050565b60c082015f820151610ae85f850182610897565b506020820151610afb6020850182610897565b506040820151610b0e60408501826108b9565b506060820151610b2160608501826108b9565b506080820151610b3460808501826108b9565b5060a0820151610b4760a08501826108b9565b50505050565b5f610b588383610ad4565b60c08301905092915050565b5f602082019050919050565b5f610b7a82610aab565b610b848185610ab5565b9350610b8f83610ac5565b805f5b83811015610bbf578151610ba68882610b4d565b9750610bb183610b64565b925050600181019050610b92565b5085935050505092915050565b5f6020820190508181035f830152610be48184610b70565b905092915050565b5f81905092915050565b5f610c00826105f6565b610c0a8185610bec565b9350610c1a818560208601610610565b80840191505092915050565b5f610c318284610bf6565b915081905092915050565b7f4e487b71000000000000000000000000000000000000000000000000000000005f52601160045260245ffd5b5f610c73826108a6565b9150610c7e836108a6565b9250828201905067ffffffffffffffff811115610c9e57610c9d610c3c565b5b92915050565b7f4e487b71000000000000000000000000000000000000000000000000000000005f52603260045260245ffd5b5f5ffd5b5f81519050610ce3816107cc565b92915050565b610cf2816108a6565b8114610cfc575f5ffd5b50565b5f81519050610d0d81610ce9565b92915050565b5f60c08284031215610d2857610d27610cd1565b5b610d3260c06106fd565b90505f610d4184828501610cd5565b5f830152506020610d5484828501610cd5565b6020830152506040610d6884828501610cff565b6040830152506060610d7c84828501610cff565b6060830152506080610d9084828501610cff565b60808301525060a0610da484828501610cff565b60a08301525092915050565b5f60c08284031215610dc557610dc461068f565b5b5f610dd284828501610d13565b9150509291505056fea26469706673582212202ebbc5eeb1cc3b7c73af7616f43a9710728c3acb1b3c8ca963f41b2e23fd296964736f6c634300081b0033","linkReferences":{}},"methodIdentifiers":{"DEFAULT_TIA_PRICE()":"7b1e17dd","get_all_currency_pairs()":"1be4612f","get_price(string)":"6330ac09","get_prices(string[])":"9d835653","setPrice(string,uint256)":"22e01192"},"id":36}