{"abi":[{"type":"constructor","inputs":[{"name":"initialOwner","type":"address","internalType":"address"},{"name":"oracleAddress","type":"address","internalType":"address"}],"stateMutability":"nonpayable"},{"type":"function","name":"TIA_ADDRESS","inputs":[],"outputs":[{"name":"","type":"address","internalType":"address"}],"stateMutability":"view"},{"type":"function","name":"TSHIRT_PRICE_USD","inputs":[],"outputs":[{"name":"","type":"uint256","internalType":"uint256"}],"stateMutability":"view"},{"type":"function","name":"approve","inputs":[{"name":"to","type":"address","internalType":"address"},{"name":"tokenId","type":"uint256","internalType":"uint256"}],"outputs":[],"stateMutability":"nonpayable"},{"type":"function","name":"balanceOf","inputs":[{"name":"owner","type":"address","internalType":"address"}],"outputs":[{"name":"","type":"uint256","internalType":"uint256"}],"stateMutability":"view"},{"type":"function","name":"buy","inputs":[{"name":"tokenId","type":"uint256","internalType":"uint256"}],"outputs":[],"stateMutability":"payable"},{"type":"function","name":"getApproved","inputs":[{"name":"tokenId","type":"uint256","internalType":"uint256"}],"outputs":[{"name":"","type":"address","internalType":"address"}],"stateMutability":"view"},{"type":"function","name":"getPriceInTia","inputs":[],"outputs":[{"name":"","type":"uint256","internalType":"uint256"}],"stateMutability":"nonpayable"},{"type":"function","name":"getTiaPrice","inputs":[],"outputs":[{"name":"","type":"uint256","internalType":"uint256"}],"stateMutability":"nonpayable"},{"type":"function","name":"isApprovedForAll","inputs":[{"name":"owner","type":"address","internalType":"address"},{"name":"operator","type":"address","internalType":"address"}],"outputs":[{"name":"","type":"bool","internalType":"bool"}],"stateMutability":"view"},{"type":"function","name":"name","inputs":[],"outputs":[{"name":"","type":"string","internalType":"string"}],"stateMutability":"view"},{"type":"function","name":"oracle","inputs":[],"outputs":[{"name":"","type":"address","internalType":"contract IConnectOracle"}],"stateMutability":"view"},{"type":"function","name":"owner","inputs":[],"outputs":[{"name":"","type":"address","internalType":"address"}],"stateMutability":"view"},{"type":"function","name":"ownerOf","inputs":[{"name":"tokenId","type":"uint256","internalType":"uint256"}],"outputs":[{"name":"","type":"address","internalType":"address"}],"stateMutability":"view"},{"type":"function","name":"renounceOwnership","inputs":[],"outputs":[],"stateMutability":"nonpayable"},{"type":"function","name":"safeTransferFrom","inputs":[{"name":"from","type":"address","internalType":"address"},{"name":"to","type":"address","internalType":"address"},{"name":"tokenId","type":"uint256","internalType":"uint256"}],"outputs":[],"stateMutability":"nonpayable"},{"type":"function","name":"safeTransferFrom","inputs":[{"name":"from","type":"address","internalType":"address"},{"name":"to","type":"address","internalType":"address"},{"name":"tokenId","type":"uint256","internalType":"uint256"},{"name":"data","type":"bytes","internalType":"bytes"}],"outputs":[],"stateMutability":"nonpayable"},{"type":"function","name":"setApprovalForAll","inputs":[{"name":"operator","type":"address","internalType":"address"},{"name":"approved","type":"bool","internalType":"bool"}],"outputs":[],"stateMutability":"nonpayable"},{"type":"function","name":"supportsInterface","inputs":[{"name":"interfaceId","type":"bytes4","internalType":"bytes4"}],"outputs":[{"name":"","type":"bool","internalType":"bool"}],"stateMutability":"view"},{"type":"function","name":"symbol","inputs":[],"outputs":[{"name":"","type":"string","internalType":"string"}],"stateMutability":"view"},{"type":"function","name":"tokenURI","inputs":[{"name":"tokenId","type":"uint256","internalType":"uint256"}],"outputs":[{"name":"","type":"string","internalType":"string"}],"stateMutability":"view"},{"type":"function","name":"transferFrom","inputs":[{"name":"from","type":"address","internalType":"address"},{"name":"to","type":"address","internalType":"address"},{"name":"tokenId","type":"uint256","internalType":"uint256"}],"outputs":[],"stateMutability":"nonpayable"},{"type":"function","name":"transferOwnership","inputs":[{"name":"newOwner","type":"address","internalType":"address"}],"outputs":[],"stateMutability":"nonpayable"},{"type":"function","name":"withdraw","inputs":[],"outputs":[],"stateMutability":"nonpayable"},{"type":"event","name":"Approval","inputs":[{"name":"owner","type":"address","indexed":true,"internalType":"address"},{"name":"approved","type":"address","indexed":true,"internalType":"address"},{"name":"tokenId","type":"uint256","indexed":true,"internalType":"uint256"}],"anonymous":false},{"type":"event","name":"ApprovalForAll","inputs":[{"name":"owner","type":"address","indexed":true,"internalType":"address"},{"name":"operator","type":"address","indexed":true,"internalType":"address"},{"name":"approved","type":"bool","indexed":false,"internalType":"bool"}],"anonymous":false},{"type":"event","name":"OwnershipTransferred","inputs":[{"name":"previousOwner","type":"address","indexed":true,"internalType":"address"},{"name":"newOwner","type":"address","indexed":true,"internalType":"address"}],"anonymous":false},{"type":"event","name":"Transfer","inputs":[{"name":"from","type":"address","indexed":true,"internalType":"address"},{"name":"to","type":"address","indexed":true,"internalType":"address"},{"name":"tokenId","type":"uint256","indexed":true,"internalType":"uint256"}],"anonymous":false},{"type":"error","name":"ERC721IncorrectOwner","inputs":[{"name":"sender","type":"address","internalType":"address"},{"name":"tokenId","type":"uint256","internalType":"uint256"},{"name":"owner","type":"address","internalType":"address"}]},{"type":"error","name":"ERC721InsufficientApproval","inputs":[{"name":"operator","type":"address","internalType":"address"},{"name":"tokenId","type":"uint256","internalType":"uint256"}]},{"type":"error","name":"ERC721InvalidApprover","inputs":[{"name":"approver","type":"address","internalType":"address"}]},{"type":"error","name":"ERC721InvalidOperator","inputs":[{"name":"operator","type":"address","internalType":"address"}]},{"type":"error","name":"ERC721InvalidOwner","inputs":[{"name":"owner","type":"address","internalType":"address"}]},{"type":"error","name":"ERC721InvalidReceiver","inputs":[{"name":"receiver","type":"address","internalType":"address"}]},{"type":"error","name":"ERC721InvalidSender","inputs":[{"name":"sender","type":"address","internalType":"address"}]},{"type":"error","name":"ERC721NonexistentToken","inputs":[{"name":"tokenId","type":"uint256","internalType":"uint256"}]},{"type":"error","name":"OwnableInvalidOwner","inputs":[{"name":"owner","type":"address","internalType":"address"}]},{"type":"error","name":"OwnableUnauthorizedAccount","inputs":[{"name":"account","type":"address","internalType":"address"}]}],"bytecode":{"object":"0x6080604052346100305761001a610014610104565b90610390565b610022610035565b61275d611148823961275d90f35b61003b565b60405190565b5f80fd5b601f801991011690565b634e487b7160e01b5f52604160045260245ffd5b906100679061003f565b810190811060018060401b0382111761007f57604052565b610049565b90610097610090610035565b928361005d565b565b5f80fd5b60018060a01b031690565b6100b19061009d565b90565b6100bd816100a8565b036100c457565b5f80fd5b905051906100d5826100b4565b565b91906040838203126100ff57806100f36100fc925f86016100c8565b936020016100c8565b90565b610099565b6101226138a58038038061011781610084565b9283398101906100d7565b9091565b60018060401b0381116101425761013e60209161003f565b0190565b610049565b9061015961015483610126565b610084565b918252565b5f7f43616d70204d616d6f20542d5368697274000000000000000000000000000000910152565b61018f6011610147565b9061019c6020830161015e565b565b6101a6610185565b90565b5f7f434d540000000000000000000000000000000000000000000000000000000000910152565b6101da6003610147565b906101e7602083016101a9565b565b6101f16101d0565b90565b90565b61020b6102066102109261009d565b6101f4565b61009d565b90565b61021c906101f7565b90565b61022890610213565b90565b5f1b90565b9061024160018060a01b039161022b565b9181191691161790565b61025490610213565b90565b90565b9061026f61026a6102769261024b565b610257565b8254610230565b9055565b90565b90565b61029461028f6102999261027a565b6101f4565b61027d565b90565b60016102a8910161027d565b90565b90565b6102c26102bd6102c7926102ab565b6101f4565b61027d565b90565b6102d3906101f7565b90565b6102df906102ca565b90565b5f1c90565b90565b6102f66102fb916102e2565b6102e7565b90565b61030890546102ea565b90565b634e487b7160e01b5f52601160045260245ffd5b6103289061027d565b5f1981146103365760010190565b61030b565b906103475f199161022b565b9181191691161790565b61036561036061036a9261027d565b6101f4565b61027d565b90565b90565b9061038561038061038c92610351565b61036d565b825461033b565b9055565b6103bd916103b16103b6926103a361019e565b6103ab6101e9565b9161046b565b61021f565b600761025a565b6103c65f610280565b5b806103db6103d5600a6102ae565b9161027d565b101561041e57610419906104146103f1306102d6565b6103fb60086102fe565b61040e6104078261031f565b6008610370565b90610727565b61029c565b6103c7565b50565b61043561043061043a9261027a565b6101f4565b61009d565b90565b61044690610421565b90565b610452906100a8565b9052565b9190610469905f60208501940190610449565b565b91610475916106f9565b8061049061048a6104855f61043d565b6100a8565b916100a8565b146104a05761049e9061079d565b565b6104c36104ac5f61043d565b5f918291631e4fbdf760e01b835260048301610456565b0390fd5b5190565b634e487b7160e01b5f52602260045260245ffd5b90600160028304921680156104ff575b60208310146104fa57565b6104cb565b91607f16916104ef565b5f5260205f2090565b601f602091010490565b1b90565b9190600861053b9102916105355f198461051c565b9261051c565b9181191691161790565b919061055b61055661056393610351565b61036d565b908354610520565b9055565b5f90565b61057d91610577610567565b91610545565b565b5b81811061058b575050565b806105985f60019361056b565b01610580565b9190601f81116105ae575b505050565b6105ba6105df93610509565b9060206105c684610512565b830193106105e7575b6105d890610512565b019061057f565b5f80806105a9565b91506105d8819290506105cf565b1c90565b90610609905f19906008026105f5565b191690565b81610618916105f9565b906002021790565b9061062a816104c7565b9060018060401b0382116106e85761064c8261064685546104df565b8561059e565b602090601f83116001146106805791809161066f935f92610674575b505061060e565b90555b565b90915001515f80610668565b601f1983169161068f85610509565b925f5b8181106106d0575091600293918560019694106106b6575b50505002019055610672565b6106c6910151601f8416906105f9565b90555f80806106aa565b91936020600181928787015181550195019201610692565b610049565b906106f791610620565b565b9061070761070e925f6106ed565b60016106ed565b565b6107195f610147565b90565b610724610710565b90565b9061073b919061073561071c565b916107fe565b565b60018060a01b031690565b610754610759916102e2565b61073d565b90565b6107669054610748565b90565b610772906102ca565b90565b90565b9061078d61078861079492610769565b610775565b8254610230565b9055565b5f0190565b6107a7600661075c565b6107b2826006610778565b906107e66107e07f8be0079c531659141344cd1fd0a4f28419497f9722a3daafe3b4186f6b6457e093610769565b91610769565b916107ef610035565b806107f981610798565b0390a3565b90916108219261080f838290610823565b6108185f61043d565b92909192610a3d565b565b908161083f6108396108345f61043d565b6100a8565b916100a8565b146108a05761085891906108525f61043d565b91610c03565b61087261086c6108675f61043d565b6100a8565b916100a8565b0361087957565b61089c6108855f61043d565b5f9182916339e3563760e11b835260048301610456565b0390fd5b6108c36108ac5f61043d565b5f918291633250574960e11b835260048301610456565b0390fd5b6108d0906101f7565b90565b6108dc906108c7565b90565b6108e8906102ca565b90565b60e01b90565b63ffffffff60e01b1690565b610906816108f1565b0361090d57565b5f80fd5b9050519061091e826108fd565b565b9060208282031261093957610936915f01610911565b90565b610099565b6109479061027d565b9052565b5190565b60209181520190565b90825f9392825e0152565b61098261098b602093610990936109798161094b565b9384809361094f565b95869101610958565b61003f565b0190565b90926109c7906109bd6109d496946109b360808601975f870190610449565b6020850190610449565b604083019061093e565b6060818403910152610963565b90565b60018060401b0381116109f3576109ef60209161003f565b0190565b610049565b90610a0a610a05836109d7565b610084565b918252565b606090565b3d5f14610a2f57610a243d6109f8565b903d5f602084013e5b565b610a37610a0f565b90610a2d565b929092833b610a54610a4e5f610280565b9161027d565b11610a60575b50505050565b602091610aa05f610a78610a73886108d3565b6108df565b92610aab63150b7a0291610a8a610d84565b9698610a94610035565b998a98899788966108eb565b865260048601610994565b03925af180915f92610b68575b50155f14610b2557506001610ad257505b5f808080610a5a565b610ada610a14565b90610ae48261094b565b610af6610af05f610280565b9161027d565b145f14610b1c57610b18905f918291633250574960e11b835260048301610456565b0390fd5b50805190602001fd5b610b3e610b38630a85bd0160e11b6108f1565b916108f1565b03610b495750610ac9565b610b64905f918291633250574960e11b835260048301610456565b0390fd5b610b8a91925060203d8111610b91575b610b82818361005d565b810190610920565b905f610ab8565b503d610b78565b5f90565b90565b610bb3610bae610bb892610b9c565b6101f4565b61027d565b90565b90610bc590610769565b5f5260205260405f2090565b90610bdc910361027d565b90565b90610bea910161027d565b90565b90610bf790610351565b5f5260205260405f2090565b90610c0c610b98565b50610c1681610d91565b9280610c32610c2c610c275f61043d565b6100a8565b916100a8565b03610d71575b5082610c54610c4e610c495f61043d565b6100a8565b916100a8565b03610d1d575b81610c75610c6f610c6a5f61043d565b6100a8565b916100a8565b03610ce7575b610c9082610c8b60028490610bed565b610778565b8291610cce610cc8610cc27fddf252ad1be2c89b69c2b068fc378daa952ba7f163c4a11628f55a4df523b3ef95610769565b92610769565b92610351565b92610cd7610035565b80610ce181610798565b0390a490565b610d18610cf46001610b9f565b610d12610d0360038690610bbb565b91610d0d836102fe565b610bdf565b90610370565b610c7b565b610d3b610d295f61043d565b82610d335f61043d565b905f92610e69565b610d6c610d486001610b9f565b610d66610d5760038790610bbb565b91610d61836102fe565b610bd1565b90610370565b610c5a565b610d7e9084908391610ded565b5f610c38565b610d8c610b98565b503390565b610da8610dad91610da0610b98565b506002610bed565b61075c565b90565b151590565b916020610dd6929493610dcf60408201965f830190610449565b019061093e565b565b9190610deb905f6020850194019061093e565b565b610e02610dfc82848691610fb7565b15610db0565b610e0b57505050565b610e25610e1f610e1a5f61043d565b6100a8565b916100a8565b145f14610e4b57610e47825f918291637e27328960e01b835260048301610dd8565b0390fd5b610e655f92839263177e802f60e01b845260048401610db5565b0390fd5b919092808015610f90575b610e92575b505090610e8b610e9092916004610bed565b610778565b565b610e9b84611057565b9180610eb7610eb1610eac5f61043d565b6100a8565b916100a8565b141580610f75575b80610f5b575b610f3c575091610e8b91610e909493610ee1575b509192610e79565b818490610f20610f1a610f147f8c5be1e5ebec7d5bd14f71427d1e84f3dd0314c0f7b2291e5b200ac8c7c3b92595610769565b92610769565b92610351565b92610f29610035565b80610f3381610798565b0390a45f610ed9565b610f57905f91829163a9fbf51f60e01b835260048301610456565b0390fd5b50610f70610f6a848390611100565b15610db0565b610ec5565b5082610f89610f83836100a8565b916100a8565b1415610ebf565b5081610fac610fa6610fa15f61043d565b6100a8565b916100a8565b1415610e74565b5f90565b9190610fc1610fb3565b5080610fdd610fd7610fd25f61043d565b6100a8565b916100a8565b14159283610fec575b50505090565b8091929350611003610ffd846100a8565b916100a8565b14908115611045575b5091821561101f575b50505f8080610fe6565b61103d91925061103161103791611128565b926100a8565b916100a8565b145f80611015565b61105191508290611100565b5f61100c565b61105f610b98565b5061106981610d91565b908161108561107f61107a5f61043d565b6100a8565b916100a8565b1461108e575090565b6110a9905f918291637e27328960e01b835260048301610dd8565b0390fd5b906110b790610769565b5f5260205260405f2090565b906110cd90610769565b5f5260205260405f2090565b60ff1690565b6110eb6110f0916102e2565b6110d9565b90565b6110fd90546110df565b90565b6111259161111b61112092611113610fb3565b5060056110ad565b6110c3565b6110f3565b90565b61113f61114491611137610b98565b506004610bed565b61075c565b9056fe60806040526004361015610013575b610b37565b61001d5f3561018c565b806301ffc9a71461018757806306fdde0314610182578063081812fc1461017d578063095ea7b31461017857806323b872dd146101735780633467020d1461016e5780633ccfd60b1461016957806342842e0e146101645780636352211e1461015f57806370a082311461015a578063715018a6146101555780637dc0d1d0146101505780638da5cb5b1461014b57806395d89b4114610146578063a22cb46514610141578063a3f807861461013c578063b88d4fde14610137578063c2230c4914610132578063c87b56dd1461012d578063d96a094a14610128578063df7748bd14610123578063e985e9c51461011e5763f2fde38b0361000e57610b04565b610ace565b610a6c565b610a04565b6109cf565b61099a565b610953565b6107de565b6107aa565b610725565b6106f0565b6106bb565b6105eb565b6105b6565b610563565b61052f565b6104fc565b6104c7565b610471565b610403565b610379565b6102c7565b610218565b60e01c90565b60405190565b5f80fd5b5f80fd5b5f80fd5b63ffffffff60e01b1690565b6101b9816101a4565b036101c057565b5f80fd5b905035906101d1826101b0565b565b906020828203126101ec576101e9915f016101c4565b90565b61019c565b151590565b6101ff906101f1565b9052565b9190610216905f602085019401906101f6565b565b346102485761024461023361022e3660046101d3565b610b3f565b61023b610192565b91829182610203565b0390f35b610198565b5f91031261025757565b61019c565b5190565b60209181520190565b90825f9392825e0152565b601f801991011690565b61029d6102a66020936102ab936102948161025c565b93848093610260565b95869101610269565b610274565b0190565b6102c49160208201915f81840391015261027e565b90565b346102f7576102d736600461024d565b6102f36102e2610cc3565b6102ea610192565b918291826102af565b0390f35b610198565b90565b610308816102fc565b0361030f57565b5f80fd5b90503590610320826102ff565b565b9060208282031261033b57610338915f01610313565b90565b61019c565b60018060a01b031690565b61035490610340565b90565b6103609061034b565b9052565b9190610377905f60208501940190610357565b565b346103a9576103a561039461038f366004610322565b610cdc565b61039c610192565b91829182610364565b0390f35b610198565b6103b78161034b565b036103be57565b5f80fd5b905035906103cf826103ae565b565b91906040838203126103f957806103ed6103f6925f86016103c2565b93602001610313565b90565b61019c565b5f0190565b346104325761041c6104163660046103d1565b90610cfb565b610424610192565b8061042e816103fe565b0390f35b610198565b909160608284031261046c57610469610452845f85016103c2565b9361046081602086016103c2565b93604001610313565b90565b61019c565b346104a05761048a610484366004610437565b91610d6e565b610492610192565b8061049c816103fe565b0390f35b610198565b6104ae906102fc565b9052565b91906104c5905f602085019401906104a5565b565b346104f7576104d736600461024d565b6104f36104e2610eab565b6104ea610192565b918291826104b2565b0390f35b610198565b3461052a5761050c36600461024d565b61051461102c565b61051c610192565b80610526816103fe565b0390f35b610198565b3461055e57610548610542366004610437565b91611087565b610550610192565b8061055a816103fe565b0390f35b610198565b346105935761058f61057e610579366004610322565b61109d565b610586610192565b91829182610364565b0390f35b610198565b906020828203126105b1576105ae915f016103c2565b90565b61019c565b346105e6576105e26105d16105cc366004610598565b6110fd565b6105d9610192565b918291826104b2565b0390f35b610198565b34610619576105fb36600461024d565b610603611188565b61060b610192565b80610615816103fe565b0390f35b610198565b1c90565b60018060a01b031690565b61063d906008610642930261061e565b610622565b90565b90610650915461062d565b90565b61065f60075f90610645565b90565b90565b61067961067461067e92610340565b610662565b610340565b90565b61068a90610665565b90565b61069690610681565b90565b6106a29061068d565b9052565b91906106b9905f60208501940190610699565b565b346106eb576106cb36600461024d565b6106e76106d6610653565b6106de610192565b918291826106a6565b0390f35b610198565b346107205761070036600461024d565b61071c61070b6111be565b610713610192565b91829182610364565b0390f35b610198565b346107555761073536600461024d565b6107516107406111d4565b610748610192565b918291826102af565b0390f35b610198565b610763816101f1565b0361076a57565b5f80fd5b9050359061077b8261075a565b565b91906040838203126107a557806107996107a2925f86016103c2565b9360200161076e565b90565b61019c565b346107d9576107c36107bd36600461077d565b906111ea565b6107cb610192565b806107d5816103fe565b0390f35b610198565b3461080e576107ee36600461024d565b61080a6107f9611385565b610801610192565b918291826104b2565b0390f35b610198565b5f80fd5b5f80fd5b634e487b7160e01b5f52604160045260245ffd5b9061083990610274565b810190811067ffffffffffffffff82111761085357604052565b61081b565b9061086b610864610192565b928361082f565b565b67ffffffffffffffff811161088b57610887602091610274565b0190565b61081b565b90825f939282370152565b909291926108b06108ab8261086d565b610858565b938185526020850190828401116108cc576108ca92610890565b565b610817565b9080601f830112156108ef578160206108ec9335910161089b565b90565b610813565b9060808282031261094e5761090b815f84016103c2565b9261091982602085016103c2565b926109278360408301610313565b92606082013567ffffffffffffffff81116109495761094692016108d1565b90565b6101a0565b61019c565b346109855761096f6109663660046108f4565b92919091611421565b610977610192565b80610981816103fe565b0390f35b610198565b600190565b61099761098a565b90565b346109ca576109aa36600461024d565b6109c66109b561098f565b6109bd610192565b91829182610364565b0390f35b610198565b346109ff576109fb6109ea6109e5366004610322565b6114df565b6109f2610192565b918291826102af565b0390f35b610198565b610a17610a12366004610322565b61164f565b610a1f610192565b80610a29816103fe565b0390f35b90565b610a44610a3f610a4992610a2d565b610662565b6102fc565b90565b610a5e6801158e460913d00000610a30565b90565b610a69610a4c565b90565b34610a9c57610a7c36600461024d565b610a98610a87610a61565b610a8f610192565b918291826104b2565b0390f35b610198565b9190604083820312610ac95780610abd610ac6925f86016103c2565b936020016103c2565b90565b61019c565b34610aff57610afb610aea610ae4366004610aa1565b9061170b565b610af2610192565b91829182610203565b0390f35b610198565b34610b3257610b1c610b17366004610598565b611798565b610b24610192565b80610b2e816103fe565b0390f35b610198565b5f80fd5b5f90565b610b47610b3b565b5080610b62610b5c6380ac58cd60e01b6101a4565b916101a4565b148015610b86575b908115610b76575b5090565b610b8091506117a3565b5f610b72565b5080610ba1610b9b635b5e139f60e01b6101a4565b916101a4565b14610b6a565b606090565b634e487b7160e01b5f52602260045260245ffd5b9060016002830492168015610be0575b6020831014610bdb57565b610bac565b91607f1691610bd0565b60209181520190565b5f5260205f2090565b905f9291805490610c16610c0f83610bc0565b8094610bea565b916001811690815f14610c6d5750600114610c31575b505050565b610c3e9192939450610bf3565b915f925b818410610c5557505001905f8080610c2c565b60018160209295939554848601520191019290610c42565b92949550505060ff19168252151560200201905f8080610c2c565b90610c9291610bfc565b90565b90610cb5610cae92610ca5610192565b93848092610c88565b038361082f565b565b610cc090610c95565b90565b610ccb610ba7565b50610cd55f610cb7565b90565b5f90565b610cf890610ce8610cd8565b50610cf2816117c9565b50611851565b90565b90610d0f9190610d09611870565b9161187d565b565b90565b610d28610d23610d2d92610d11565b610662565b610340565b90565b610d3990610d14565b90565b604090610d65610d6c9496959396610d5b60608401985f850190610357565b60208301906104a5565b0190610357565b565b919080610d8b610d85610d805f610d30565b61034b565b9161034b565b14610de257610da39082610d9d611870565b91611944565b9182610db7610db18361034b565b9161034b565b03610dc157505050565b610dde9091925f9384936364283d7b60e01b855260048501610d3c565b0390fd5b610e05610dee5f610d30565b5f918291633250574960e11b835260048301610364565b0390fd5b5f90565b90565b610e24610e1f610e2992610e0d565b610662565b6102fc565b90565b634e487b7160e01b5f52601160045260245ffd5b610e4f610e55919392936102fc565b926102fc565b91610e618382026102fc565b928184041490151715610e7057565b610e2c565b634e487b7160e01b5f52601260045260245ffd5b610e95610e9b916102fc565b916102fc565b908115610ea6570490565b610e75565b610eb3610e09565b50610ee6610ebf611385565b610ee1610eca610a4c565b610edb670de0b6b3a7640000610e10565b90610e40565b610e89565b90565b610ef1611ac5565b610ef9610fee565b565b610f0490610681565b90565b905090565b610f175f8092610f07565b0190565b610f2490610f0c565b90565b90610f39610f348361086d565b610858565b918252565b606090565b3d5f14610f5e57610f533d610f27565b903d5f602084013e5b565b610f66610f3e565b90610f5c565b5f7f5472616e73666572206661696c65642e00000000000000000000000000000000910152565b610fa06010602092610260565b610fa981610f6c565b0190565b610fc29060208101905f818303910152610f93565b90565b15610fcc57565b610fd4610192565b62461bcd60e51b815280610fea60048201610fad565b0390fd5b61102a5f80610ffb6111be565b61100430610efb565b3161100d610192565b908161101881610f1b565b03925af1611024610f43565b50610fc5565b565b611034610ee9565b565b67ffffffffffffffff811161105457611050602091610274565b0190565b61081b565b9061106b61106683611036565b610858565b918252565b6110795f611059565b90565b611084611070565b90565b9161109b929161109561107c565b92611421565b565b6110af906110a9610cd8565b506117c9565b90565b6110bb90610681565b90565b906110c8906110b2565b5f5260205260405f2090565b5f1c90565b90565b6110e86110ed916110d4565b6110d9565b90565b6110fa90546110dc565b90565b611105610e09565b508061112161111b6111165f610d30565b61034b565b9161034b565b1461113c576111346111399160036110be565b6110f0565b90565b61115f6111485f610d30565b5f9182916322718ad960e21b835260048301610364565b0390fd5b61116b611ac5565b611173611175565b565b6111866111815f610d30565b611b13565b565b611190611163565b565b60018060a01b031690565b6111a96111ae916110d4565b611192565b90565b6111bb905461119d565b90565b6111c6610cd8565b506111d160066111b1565b90565b6111dc610ba7565b506111e76001610cb7565b90565b6111fe916111f6611870565b919091611bb9565b565b61120c611211916110d4565b610622565b90565b61121e9054611200565b90565b60e01b90565b5f80fd5b90505190611238826102ff565b565b67ffffffffffffffff1690565b6112508161123a565b0361125757565b5f80fd5b9050519061126882611247565b565b919060c0838203126112ec576112e59061128460c0610858565b93611291825f830161122b565b5f8601526112a2826020830161122b565b60208601526112b4826040830161125b565b60408601526112c6826060830161125b565b60608601526112d8826080830161125b565b608086015260a00161125b565b60a0830152565b611227565b9060c08282031261130a57611307915f0161126a565b90565b61019c565b5f7f5449412f55534400000000000000000000000000000000000000000000000000910152565b6113436007602092610260565b61134c8161130f565b0190565b6113659060208101905f818303910152611336565b90565b611370610192565b3d5f823e3d90fd5b61138290516102fc565b90565b61138d610e09565b506113bb60c06113a56113a06007611214565b61068d565b636330ac09906113b3610192565b938492611221565b8252815f816113cc60048201611350565b03925af190811561141c576113eb915f9182916113ee575b5001611378565b90565b61140f915060c03d8111611415575b611407818361082f565b8101906112f1565b5f6113e4565b503d6113fd565b611368565b9161143d93919261143481858491610d6e565b92909192611d38565b565b90565b5190565b61145a61145561145f92610d11565b610662565b6102fc565b90565b61146a611070565b90565b905090565b61149761148e926020926114858161025c565b9485809361146d565b93849101610269565b0190565b6114a9906114af9392611472565b90611472565b90565b6114d192916114dd916114c3610192565b94859260208401928361149b565b9081038252038361082f565b565b6114e7610ba7565b506114f1816117c9565b506114fa611e93565b9061150c6115078361143f565b611442565b61151e6115185f611446565b916102fc565b115f1461153c576115326115389291611f23565b906114b2565b5b90565b5050611546611462565b611539565b5f7f546f6b656e206e6f7420617661696c61626c6520666f722073616c6500000000910152565b61157f601c602092610260565b6115888161154b565b0190565b6115a19060208101905f818303910152611572565b90565b156115ab57565b6115b3610192565b62461bcd60e51b8152806115c96004820161158c565b0390fd5b5f7f4e6f7420656e6f756768205449412073656e7400000000000000000000000000910152565b6116016013602092610260565b61160a816115cd565b0190565b6116239060208101905f8183039101526115f4565b90565b1561162d57565b611635610192565b62461bcd60e51b81528061164b6004820161160e565b0390fd5b6116b69061167f61165f8261109d565b61167961167361166e30610efb565b61034b565b9161034b565b146115a4565b6116a461168a610eab565b61169d61169734926102fc565b916102fc565b1015611626565b6116ad30610efb565b90339091611fcc565b565b906116c2906110b2565b5f5260205260405f2090565b906116d8906110b2565b5f5260205260405f2090565b60ff1690565b6116f66116fb916110d4565b6116e4565b90565b61170890546116ea565b90565b6117309161172661172b9261171e610b3b565b5060056116b8565b6116ce565b6116fe565b90565b6117449061173f611ac5565b611746565b565b8061176161175b6117565f610d30565b61034b565b9161034b565b146117715761176f90611b13565b565b61179461177d5f610d30565b5f918291631e4fbdf760e01b835260048301610364565b0390fd5b6117a190611733565b565b6117ab610b3b565b506117c56117bf6301ffc9a760e01b6101a4565b916101a4565b1490565b6117d1610cd8565b506117db816120aa565b90816117f76117f16117ec5f610d30565b61034b565b9161034b565b14611800575090565b61181b905f918291637e27328960e01b8352600483016104b2565b0390fd5b61183361182e611838926102fc565b610662565b6102fc565b90565b906118459061181f565b5f5260205260405f2090565b61186861186d91611860610cd8565b50600461183b565b6111b1565b90565b611878610cd8565b503390565b9161188b92916001926120c9565b565b90565b6118a461189f6118a99261188d565b610662565b6102fc565b90565b906118b791036102fc565b90565b5f1b90565b906118cb5f19916118ba565b9181191691161790565b90565b906118ed6118e86118f49261181f565b6118d5565b82546118bf565b9055565b9061190391016102fc565b90565b9061191760018060a01b03916118ba565b9181191691161790565b90565b90611939611934611940926110b2565b611921565b8254611906565b9055565b9061194d610cd8565b50611957816120aa565b928061197361196d6119685f610d30565b61034b565b9161034b565b03611ab2575b508261199561198f61198a5f610d30565b61034b565b9161034b565b03611a5e575b816119b66119b06119ab5f610d30565b61034b565b9161034b565b03611a28575b6119d1826119cc6002849061183b565b611924565b8291611a0f611a09611a037fddf252ad1be2c89b69c2b068fc378daa952ba7f163c4a11628f55a4df523b3ef956110b2565b926110b2565b9261181f565b92611a18610192565b80611a22816103fe565b0390a490565b611a59611a356001611890565b611a53611a44600386906110be565b91611a4e836110f0565b6118f8565b906118d8565b6119bc565b611a7c611a6a5f610d30565b82611a745f610d30565b905f926120c9565b611aad611a896001611890565b611aa7611a98600387906110be565b91611aa2836110f0565b6118ac565b906118d8565b61199b565b611abf9084908391612236565b5f611979565b611acd6111be565b611ae6611ae0611adb611870565b61034b565b9161034b565b03611aed57565b611b0f611af8611870565b5f91829163118cdaa760e01b835260048301610364565b0390fd5b611b1d60066111b1565b611b28826006611924565b90611b5c611b567f8be0079c531659141344cd1fd0a4f28419497f9722a3daafe3b4186f6b6457e0936110b2565b916110b2565b91611b65610192565b80611b6f816103fe565b0390a3565b90611b8060ff916118ba565b9181191691161790565b611b93906101f1565b90565b90565b90611bae611ba9611bb592611b8a565b611b96565b8254611b74565b9055565b91909182611bd7611bd1611bcc5f610d30565b61034b565b9161034b565b14611c4b57611bfb82611bf6611bef600585906116b8565b86906116ce565b611b99565b919091611c46611c34611c2e7f17307eab39ab6107e8899845ad3d59bd9653f200f220920489ca2b5937696c31936110b2565b936110b2565b93611c3d610192565b91829182610203565b0390a3565b611c66835f918291630b61174360e31b835260048301610364565b0390fd5b611c7390610665565b90565b611c7f90611c6a565b90565b611c8b90610681565b90565b90505190611c9b826101b0565b565b90602082820312611cb657611cb3915f01611c8e565b90565b61019c565b60209181520190565b611ce3611cec602093611cf193611cda81611442565b93848093611cbb565b95869101610269565b610274565b0190565b9092611d2890611d1e611d359694611d1460808601975f870190610357565b6020850190610357565b60408301906104a5565b6060818403910152611cc4565b90565b929092833b611d4f611d495f611446565b916102fc565b11611d5b575b50505050565b602091611d9b5f611d73611d6e88611c76565b611c82565b92611da663150b7a0291611d85611870565b9698611d8f610192565b998a9889978896611221565b865260048601611cf5565b03925af180915f92611e63575b50155f14611e2057506001611dcd57505b5f808080611d55565b611dd5610f43565b90611ddf82611442565b611df1611deb5f611446565b916102fc565b145f14611e1757611e13905f918291633250574960e11b835260048301610364565b0390fd5b50805190602001fd5b611e39611e33630a85bd0160e11b6101a4565b916101a4565b03611e445750611dc4565b611e5f905f918291633250574960e11b835260048301610364565b0390fd5b611e8591925060203d8111611e8c575b611e7d818361082f565b810190611c9d565b905f611db3565b503d611e73565b611e9b610ba7565b50611ea4611462565b90565b369037565b90611ed1611eb983611059565b92602080611ec78693611036565b9201910390611ea7565b565b6001611edf91036102fc565b90565b90565b611ef9611ef4611efe92611ee2565b610662565b6102fc565b90565b611f0d611f13916102fc565b916102fc565b908115611f1e570490565b610e75565b611f2b610ba7565b50611f48611f3882612426565b611f426001611890565b906118f8565b90611f5282611eac565b91611f5b610e09565b5060200182015b600115611fc557611f75611fa191611ed3565b916f181899199a1a9b1b9c1cb0b131b232b360811b600a82061a8353611f9b600a611ee5565b90611f01565b80611fb4611fae5f611446565b916102fc565b14611fbf5790611f62565b50505b90565b5050611fc2565b9080611fe8611fe2611fdd5f610d30565b61034b565b9161034b565b14612083576120019083611ffb5f610d30565b91611944565b908161201d6120176120125f610d30565b61034b565b9161034b565b145f146120435761203f835f918291637e27328960e01b8352600483016104b2565b0390fd5b8192916120586120528361034b565b9161034b565b0361206257505050565b61207f9091925f9384936364283d7b60e01b855260048501610d3c565b0390fd5b6120a661208f5f610d30565b5f918291633250574960e11b835260048301610364565b0390fd5b6120c16120c6916120b9610cd8565b50600261183b565b6111b1565b90565b9190928080156121f0575b6120f2575b5050906120eb6120f09291600461183b565b611924565b565b6120fb846117c9565b918061211761211161210c5f610d30565b61034b565b9161034b565b1415806121d5575b806121bb575b61219c5750916120eb916120f09493612141575b5091926120d9565b81849061218061217a6121747f8c5be1e5ebec7d5bd14f71427d1e84f3dd0314c0f7b2291e5b200ac8c7c3b925956110b2565b926110b2565b9261181f565b92612189610192565b80612193816103fe565b0390a45f612139565b6121b7905f91829163a9fbf51f60e01b835260048301610364565b0390fd5b506121d06121ca84839061170b565b156101f1565b612125565b50826121e96121e38361034b565b9161034b565b141561211f565b508161220c6122066122015f610d30565b61034b565b9161034b565b14156120d4565b91602061223492949361222d60408201965f830190610357565b01906104a5565b565b61224b61224582848691612687565b156101f1565b61225457505050565b61226e6122686122635f610d30565b61034b565b9161034b565b145f1461229457612290825f918291637e27328960e01b8352600483016104b2565b0390fd5b6122ae5f92839263177e802f60e01b845260048401612213565b0390fd5b90565b6122c96122c46122ce926122b2565b610662565b6102fc565b90565b90565b6122e86122e36122ed926122d1565b610662565b6102fc565b90565b90565b61230761230261230c926122f0565b610662565b6102fc565b90565b90565b61232661232161232b9261230f565b610662565b6102fc565b90565b90565b61234561234061234a9261232e565b610662565b6102fc565b90565b90565b61236461235f6123699261234d565b610662565b6102fc565b90565b90565b61238361237e6123889261236c565b610662565b6102fc565b90565b90565b6123a261239d6123a79261238b565b610662565b6102fc565b90565b90565b6123c16123bc6123c6926123aa565b610662565b6102fc565b90565b90565b6123e06123db6123e5926123c9565b610662565b6102fc565b90565b90565b6123ff6123fa612404926123e8565b610662565b6102fc565b90565b90565b61241e61241961242392612407565b610662565b6102fc565b90565b61242e610e09565b506124385f611446565b90806124676124617a184f03e93ff9f4daa797ed6e38ed64bf6a1f0100000000000000006122b5565b916102fc565b101561263f575b8061248f6124896d04ee2d6d415b85acef81000000006122f3565b916102fc565b1015612604575b806124b06124aa662386f26fc10000612331565b916102fc565b10156125d0575b806124ce6124c86305f5e10061236f565b916102fc565b101561259f575b806124ea6124e46127106123ad565b916102fc565b1015612570575b806125056124ff60646123eb565b916102fc565b1015612542575b61251f612519600a611ee5565b916102fc565b1015612529575b90565b61253d906125376001611890565b906118f8565b612526565b61255961256a9161255360646123eb565b90611f01565b91612564600261240a565b906118f8565b9061250c565b612588612599916125826127106123ad565b90611f01565b9161259360046123cc565b906118f8565b906124f1565b6125b96125ca916125b36305f5e10061236f565b90611f01565b916125c4600861238e565b906118f8565b906124d5565b6125ed6125fe916125e7662386f26fc10000612331565b90611f01565b916125f86010612350565b906118f8565b906124b7565b612628612639916126226d04ee2d6d415b85acef81000000006122f3565b90611f01565b916126336020612312565b906118f8565b90612496565b6126706126819161266a7a184f03e93ff9f4daa797ed6e38ed64bf6a1f0100000000000000006122b5565b90611f01565b9161267b60406122d4565b906118f8565b9061246e565b9190612691610b3b565b50806126ad6126a76126a25f610d30565b61034b565b9161034b565b141592836126bc575b50505090565b80919293506126d36126cd8461034b565b9161034b565b14908115612715575b509182156126ef575b50505f80806126b6565b61270d91925061270161270791611851565b9261034b565b9161034b565b145f806126e5565b6127219150829061170b565b5f6126dc56fea26469706673582212209e8f22baa1e6b2c6dc5c86bc77f9f7203b67d7e77a04c84b173b0b7a8974474664736f6c634300081b0033","linkReferences":{}},"methodIdentifiers":{"TIA_ADDRESS()":"c2230c49","TSHIRT_PRICE_USD()":"df7748bd","approve(address,uint256)":"095ea7b3","balanceOf(address)":"70a08231","buy(uint256)":"d96a094a","getApproved(uint256)":"081812fc","getPriceInTia()":"3467020d","getTiaPrice()":"a3f80786","isApprovedForAll(address,address)":"e985e9c5","name()":"06fdde03","oracle()":"7dc0d1d0","owner()":"8da5cb5b","ownerOf(uint256)":"6352211e","renounceOwnership()":"715018a6","safeTransferFrom(address,address,uint256)":"42842e0e","safeTransferFrom(address,address,uint256,bytes)":"b88d4fde","setApprovalForAll(address,bool)":"a22cb465","supportsInterface(bytes4)":"01ffc9a7","symbol()":"95d89b41","tokenURI(uint256)":"c87b56dd","transferFrom(address,address,uint256)":"23b872dd","transferOwnership(address)":"f2fde38b","withdraw()":"3ccfd60b"},"id":29}